:100000000C9460030C947D030C947D030C947D038D
:100010000C947D030C947D030C947D030C947D0360
:100020000C947D030C947D030C947D030C947D0350
:100030000C947D030C947D030C947D030C947D0340
:100040000C947D030C947D030C947D030C947D0330
:100050000C947D030C947D030C947D030C947D0320
:100060000C947D030C947D030C947D030C947D0310
:1000700000000000005C00000C000C007C287C28C4
:1000800058DC68002410480028542840000C000068
:10009000007884008478000054385400107C1000EC
:1000A00080400000101010000040000060100C00A4
:1000B00038543800487C40004864580044542C00B0
:1000C0001C107C005C5424003854240064140C0080
:1000D00068542C0048543800004800008048000054
:1000E0001028440028282800442810000454080040
:1000F00038445C00781478007C5428003844280088
:100100007C4438007C5444007C140400384474005F
:100110007C107C00447C440020403C007C106C003F
:100120007C4040007C187C0078103C00384438004B
:100130007C1408003844B8007C146800485424003B
:10014000047C04007C407C003C603C007C307C00F3
:100150006C106C000C700C0064544C00007C44006B
:100160000C106000447C00000804080080808000BF
:1001700000040800304878007C48300030484800CF
:1001800030487C00306850001078140090A8780047
:100190007C08700050744000808074007C106800FF
:1001A000447C4000781078007808700030483000B7
:1001B000F82810003048F80078100800505828003F
:1001C000083C4800384078003840380078207800F3
:1001D0004830480098A0780048685800107884009B
:1001E000007C00008478100008040804000000006F
:1001F0000000005F00000007000700147F147F1458
:10020000242A7F2A1223130864623649552250009B
:1002100005030000001C2241000041221C00082AA6
:100220001C2A0808083E080800503000000808088A
:100230000808006060000020100804023E51494593
:100240003E00427F400042615149462141454B31C9
:100250001814127F1027454545393C4A4949300159
:10026000710905033649494936064949291E0036B0
:100270003600000056360000000814224114141401
:10028000141441221408000201510906324979412F
:100290003E7E1111117E7F494949363E414141223E
:1002A0007F4141221C7F494949417F090901013EA3
:1002B000414151327F0808087F00417F41002040C2
:1002C000413F017F081422417F404040407F0204AB
:1002D000027F7F0408107F3E4141413E7F090909AA
:1002E000063E4151215E7F09192946464949493157
:1002F00001017F01013F4040403F1F2040201F7F00
:100300002018207F631408146303047804036151E8
:1003100049454300007F4141020408102041417FCC
:100320000000040201020440404040400001020479
:100330000020545454787F4844443838444444207E
:10034000384444487F3854545418087E0901020840
:100350001454543C7F0804047800447D400020403D
:10036000443D00007F10284400417F40007C041879
:1003700004787C0804047838444444387C14141409
:1003800008081414187C7C080404084854545420A9
:10039000043F4440203C4040207C1C2040201C3C2A
:1003A0004030403C44281028440C5050503C446499
:1003B000544C44000836410000007F0000004136E4
:1003C000080002010302010000000000000000001C
:1003D000065F5F0600000000070700070700001423
:1003E0007F7F147F7F1400242E6B6B3A120000462F
:1003F0006630180C666200307A4F5D377A48000428
:1004000007030000000000001C3E634100000000E4
:1004100041633E1C000000082A3E1C1C3E2A0808BE
:10042000083E3E0808000000A0E060000000000850
:100430000808080808000000006060000000006074
:1004400030180C060301003E7F594D7F3E000042EC
:10045000427F7F40400000627359496F660000226E
:100460006349497F360000181C16137F7F10002750
:100470006745457D3900003C7E4B497930000003DB
:100480006371190F070000367F49497F3600000667
:100490004F49693F1E000000006C6C000000000026
:1004A000A0EC6C00000000081C3663410000001442
:1004B00014141414140000004163361C08000002D8
:1004C0000351590F0600003E7F415D5D1F1E007CF9
:1004D0007E13137E7C0000417F7F49497F36001CDC
:1004E0003E634141632200417F7F41637F1C0041A5
:1004F0007F7F495D416300417F7F491D0103001CEF
:100500003E6341517372007F7F08087F7F000000C7
:10051000417F7F41000000307040417F3F0100413A
:100520007F7F081C776300417F7F41406070007FC0
:100530007F060C067F7F007F7F060C187F7F001CE4
:100540003E6341633E1C00417F7F49090F06001E48
:100550003F21717F5E0000417F7F19396F46002681
:10056000674D597B32000003417F7F410300007FCC
:100570007F40407F7F00001F3F60603F1F00007F83
:100580007F3018307F7F0063771C081C776300077B
:100590004F78784F0700006773594D47637100002B
:1005A0007F7F41410000000103060C18306000000D
:1005B00041417F7F000000080C0603060C08008004
:1005C000808080808080800000030704000000207D
:1005D0007454543C784000413F7F44447C38003898
:1005E0007C44446C280000307848493F7F40003804
:1005F0007C54545C180000487E7F49030200009838
:10060000BCA4A4F87C0400417F7F08047C7800002F
:10061000447D7D4000000040C484FD7D0000004119
:100620007F7F10386C440000417F7F400000007CD9
:100630007C0C180C7C78007C7C04047C78000038EE
:100640007C44447C38000084FCF8A4243C18001846
:100650003C24A4F8FC8400447C78441C1800004826
:100660005C54547424000000043E7F442400003C89
:100670007C40403C7C40001C3C60603C1C00003CDA
:100680007C6030607C3C00446C3810386C44009CCA
:10069000BCA0A0FC7C00004C64745C4C64000008AE
:1006A000083E7741410000000000777700000041DC
:1006B00041773E0808000002030103020301000025
:1006C00011241FBECFEFD4E0DEBFCDBF13E0A0E00A
:1006D000B1E0E2E8F3E202C005900D92A633B10763
:1006E000D9F723E0A6E3B3E001C01D92A034B2071E
:1006F000E1F70E947F030C94BF110C9400008FE17E
:1007000090E00E9415040E9422040E94AB040E9403
:1007100089060E9486080E940A090E94290A80E030
:100720000E9404090E94DA068BE00E947D07C0E067
:10073000D0E00F2EFAEACF2EFAE0DF2EF02D0F2EAA
:10074000F0E1EF2EFCE0FF2EF02D00E114E10F2E82
:10075000FCE0AF2EF1E0BF2EF02D992493940F2EE4
:10076000F3E08F2EF02D0E941E080E9472078C303D
:10077000D1F70E947D07CE01B6010E948F0A892B16
:1007800019F489E70E94360ACE019770892B19F473
:1007900088E70E94360A9E01329522952F70232702
:1007A0003F702327ADE9BAE00E94A30A969587958A
:1007B00096958795969587958E9D90018F9D300D86
:1007C0009E9D300D1124C217D30711F40E946B0AAD
:1007D000CE01B8010E948F0A892BE9F40E94DC083F
:1007E0008D30C8F0F501908281820E9472070E94CC
:1007F0007D0704C00E945206892B21F40E945206F4
:10080000892BC1F3F501908291820E9472070E94A8
:100810007D072196A8CF2196AECF5D9BFECF8CB9E8
:1008200008955F9BFECF8CB1089590BD89B988E192
:100830008AB98EE880BD61E174E08DE094E00E94A9
:10084000CE0C089585B7806885BF80E280BF08958B
:10085000CF92DF92EF92FF920F931F93CF93DF938C
:1008600088E191E00E942F0D0E94BE0C7C010E9445
:10087000C30CC12CD12C00E010E0CFE2D1E00E94EB
:10088000BE0CF601F85E808320812817A9F0992715
:100890009F938F931F922F93DF92CF92DF93CF93EB
:1008A0000E94190D0F5F1F4F8DB79EB708960FB6A8
:1008B000F8949EBF0FBE8DBF9FEFC91AD90AC1140D
:1008C00088E0D806E1F6C7010E94C30CC0E0D0E082
:1008D000E12CF12C0F2EF9E6CF2EF1E0DF2EF02DDA
:1008E0000E94BE0CFE01F85E20812817B1F0992706
:1008F0009F938F931F922F93DF93CF93DF92CF928B
:100900000E94190D9FEFE91AF90A8DB79EB7089654
:100910000FB6F8949EBF0FBE8DBF2196C11598E00B
:10092000D907F1F6FF92EF921F930F9387EA91E0B8
:100930009F938F930E94190D0F900F900F900F901F
:100940000F900F90DF91CF911F910F91FF90EF903B
:10095000DF90CF90089585B7806885BF80B78062AB
:1009600080BF8C9AEBE8F0E0808183608083AAE806
:10097000B0E08C9189618C93808180648083109237
:1009800087001092860084E08093001487EA91E645
:100990000197F1F700C0000008950F931F93CF93C4
:1009A000DF9300D000D0CDB7DEB7E0E0F4E184E023
:1009B000808387EA91E60197F1F700C0000080810B
:1009C000898380818A8380818B8380818C838B81E2
:1009D0001F928F9304E012E01F930F930E94190D52
:1009E0008C811F928F931F930F930E94190D87EA9A
:1009F00091E60197F1F700C000000FB6F894DEBF52
:100A00000FBECDBF0F900F900F900F90DF91CF9141
:100A10001F910F910895CF93DF93CDB7DEB728973D
:100A20000FB6F894DEBF0FBECDBFE0E0F4E194E076
:100A30009083A7EAB1E61197F1F700C0000090811A
:100A4000998390819A8390819B8390819C831D825E
:100A50001E821F8218868A36F1F0833709F03FC064
:100A60006C3619F0623761F03AC06A8170E080E05C
:100A700090E00E944E0B6D837E838F8398872FC0FA
:100A8000698170E080E090E00E944E0B6D837E8370
:100A90008F83988724C0683769F06937B1F46B8118
:100AA00070E080E090E00E944E0B6D837E838F8328
:100AB000988715C06C8170E080E090E00E944E0B3A
:100AC0006D837E838F8398870AC06C8170E080E09D
:100AD00090E00E944E0B6D837E838F8398878D817B
:100AE0009E81AF81B8858D839E83AF83B8876D81EA
:100AF0007E818F81988520E030E040E253E40E94BF
:100B0000DC0B1816ACF46D817E818F81988522EA0A
:100B10003CEB46E05FE30E94E10B2DEC3CEC48E04F
:100B200052E40E94B20A6D837E838F8398870EC041
:100B30006D817E818F81988520E030E040EA5EE320
:100B40000E94E10B6D837E838F8398876D817E8108
:100B50008F8198850E941F0B80E090E00E944E0BD1
:100B60006D837E838F8398876D817E818F81988549
:100B70000E941F0BCB0128960FB6F894DEBF0FBE64
:100B8000CDBFDF91CF910895CF93DF9300D000D0F8
:100B9000CDB7DEB768E78AE60E940B059A838983A2
:100BA00069E78AE60E940B059C838B8389819A8181
:100BB000899768F089819A81CC9748F48B819C81D0
:100BC000899728F08B819C81CC9708F440C089815B
:100BD0009A81889750F089819A81CD9730F48B81E2
:100BE0009C818B819C818997A0F189819A818897CA
:100BF00068F089819A81CD9748F48B819C81CC974C
:100C000028F08B819C818536910528F189819A8114
:100C100089819A81899740F48B819C81889720F003
:100C20008B819C81CD97C8F089819A81CC97B8F04F
:100C300089819A8185369105A0F48B819C81889762
:100C400090F08B819C81CD9780F482E50FC08EE47B
:100C50000DC084E40BC085E509C08CE407C088E5BD
:100C600005C088E503C088E501C088E50F900F90B6
:100C70000F900F90DF91CF910895CF93DF931F9244
:100C8000CDB7DEB7BA98C29A96B39470998321E033
:100C900030E0992311F020E030E0C9010F90DF919E
:100CA000CF910895CF93DF931F92CDB7DEB7B99858
:100CB000C19A96B39270998321E030E0911102C0FD
:100CC00020E030E0C9010F90DF91CF910895CF93DC
:100CD000DF931F92CDB7DEB7B898C09A96B39170E4
:100CE000998321E030E0911102C020E030E0C90199
:100CF0000F90DF91CF910895809300100895809315
:100D000000120895E0E0F0E180E2808382E08083D9
:100D10000895E0E0F0E18EEA808381EA80838AED45
:100D2000808382E1808388EC808388EA80838FE3FC
:100D3000808385ED808380E8808381E8808380E5FF
:100D4000808389ED808381E2808380E2808382E0FA
:100D500080838BED808380E380838DEA80831082A3
:100D600084EA808386EA80838FEA808387EA91E63B
:100D70000197F1F700C000000E9482060895E0E0AC
:100D8000F0E180E2808310820895E0E0F0E180E20B
:100D9000808381E0808308958055809300100895BA
:100DA000982F9F70E0E0F0E1908382958F70805FD4
:100DB000808308950E94890620EBA0E0B0E130E135
:100DC000E0E0F2E12C931C923C9380E890E01082EA
:100DD0000197E9F72F5F283BA9F708958052082E65
:100DE000000C990BFC01EE0FFF1FEE0FFF1FEE0F23
:100DF000FF1FE953FC4F880F991F880F991F880F19
:100E0000991F9C0121533C4FA0E0B2E194919C9327
:100E10003196E217F307D1F70895EF92FF920F93FF
:100E20001F93CF93DF938C017C01C0E0D0E006C01C
:100E3000F70181917F010E94EE062196F801019051
:100E40000020E9F73197E01BF10BCE17DF0780F3A5
:100E5000DF91CF911F910F91FF90EF900895CF9365
:100E6000DF9300D01F92CDB7DEB70E94C4058983FF
:100E70000E943D069B838A838A819B81892B11F086
:100E800080E5898389818035E1F0853571F084348E
:100E900019F580910C01813021F482E080930C01DE
:100EA0001BC081E080930C0117C080910C0182303F
:100EB00021F481E080930C010FC082E080930C014B
:100EC0000BC080910D01813021F482E080930D01EF
:100ED00003C081E080930D010F900F900F90DF9180
:100EE000CF910895ECE0F1E08081880F982F990F61
:100EF000990F890F9181890F08958D3009F445C0AC
:100F000028F48B3051F08C30F9F00895853109F4D4
:100F10005DC0863109F471C008950E94DA0680E050
:100F20000E94CC0680E00E94D00686E192E00E94FA
:100F30000D0781E00E94CC0680E00E94D00682E28C
:100F400092E00E940D0708950E94DA0680E00E9458
:100F5000CC0680E00E94D0068BE292E00E940D0752
:100F600081E00E94CC0680E00E94D0068AE392E0F5
:100F70000E940D0782E00E94CC0680E00E94D0060D
:100F800081E492E00E940D0708950E94DA0680E055
:100F90000E94CC0680E00E94D00689E492E00E9484
:100FA0000D0781E00E94CC0680E00E94D00684E517
:100FB00092E00E940D0782E00E94CC0680E00E9431
:100FC000D00680E692E00E940D0708950E94DA069E
:100FD00080E00E94CC0680E00E94D0068CE692E081
:100FE0000E940D0781E00E94CC0680E00E94D0069E
:100FF00086E792E00E940D0708950E94DA0680E0DD
:101000000E94CC0680E00E94D00681E892E00E9417
:101010000D0781E00E94CC0680E00E94D0068DE89A
:1010200092E00E940D0782E00E94CC0680E00E94C0
:10103000D00682E992E00E940D0708951F93CF9396
:10104000DF9300D01F92CDB7DEB70E94C40589831D
:101050000E943D069B838A830E94C40589830E9467
:101060003D069B838A830E947207182F89818434EE
:1010700039F08981853521F08A819B81892B81F026
:101080000E94DA060E942F072FE38DE093E02150A3
:1010900080409040E1F700C00000812F0E947D0752
:1010A0000F900F900F90DF91CF911F9108958FB9FE
:1010B000779BFECF08958FEF8FB9779BFECF8FB1CF
:1010C0000895C49A089580EB87BB81ED8DB90E9485
:1010D00061080895C49808950E946A0880EC0E94EF
:1010E00057080E9461080895CF93C82F0E946A088C
:1010F00083E00E9457088C2F0E9457080E945B08CB
:10110000C82F0E9461088C2FCF9108950E94630818
:101110000E946C0883EC99E00197F1F700C0000091
:101120008EE00E947408982F907E903861F01F9294
:101130008F9382EA92E09F938F930E94190D0F90F4
:101140000F900F900F900895CF93DF93C82FD62F55
:101150000E946A0882E00E9457088D2F0E9457085B
:101160008C2F0E9457080E946108DF91CF9108954B
:10117000CF93C82F0E946A08C11104C081E80E9461
:10118000570816C0C13021F482E80E94570810C0E9
:10119000C23021F484E80E9457080AC0C33021F409
:1011A00087E80E94570804C084EE92E00E942F0D49
:1011B0000E946108CF910895CF930E946A0880EA47
:1011C0000E9457080E945B08C82F0E9461088C2F5C
:1011D000CF9108951F93CF93DF93182FD62FC42F4D
:1011E0000E946A0885E00E945708812F0E945708D4
:1011F0008D2F0E9457088C2F0E9457080E9461086B
:10120000DF91CF911F910895482F60EE8FE00E94EB
:10121000EA0808950E94630808950895CF92DF9226
:10122000EF92FF921F93CF93DF936C01FC018081BB
:10123000918196958795969587959695879561E383
:101240000E94A408F601808162E38295880F807E67
:101250000E94A40865E3F60182810E94A408F601B9
:1012600082818823A9F07601F3E0EF0EF11C16E3EA
:10127000C0E0D0E0612FF70181917F010E94A408B6
:1012800021961F5FF601828190E0C817D90794F379
:1012900080E00E94B808DF91CF911F91FF90EF90FE
:1012A000DF90CF9008951F93CF93DF9382E60E9443
:1012B0007408182F81E60E947408C0E0D1E01295EE
:1012C0001695177028E0829FC0011124810F911D8F
:1012D0009983888385E60E9474088A8386E60E9443
:1012E00074088B83DF91CF911F9108958F929F9205
:1012F000AF92BF92CF92DF92EF92FF920F931F9324
:10130000CF93DF93CDB7DEB72B970FB6F894DEBF40
:101310000FBECDBF4C01FE0131968BE0DF011D9267
:101320008A95E9F782E60E947408182F81E60E94E8
:101330007408129516951770880F880F880FA82EBD
:10134000B12CA10EB11C85E60E947408082F8823D9
:10135000A9F07E01B4E0EB0EF11CCE01800F911DCF
:10136000FC0134966F0116E6812F0E947408D701A4
:101370008D937D011F5FAC15BD05B1F7BA82A982BF
:101380000B838BE0FE013196D40101900D928A957A
:10139000E1F7C4012B960FB6F894DEBF0FBECDBFA8
:1013A000DF91CF911F910F91FF90EF90DF90CF9041
:1013B000BF90AF909F908F900895EF92FF920F9300
:1013C0001F93CF93DF93CDB7DEB72B970FB6F8946B
:1013D000DEBF0FBECDBFE982FA820B831C832D8353
:1013E0003E834F83588769877A878B8783E093E0B2
:1013F0000E942F0D8A818F9389818F938DE093E0D6
:101400009F938F930E94190D8B811F928F9387E179
:1014100093E09F938F930E94190DCE0104969F93A2
:101420008F9385E293E09F938F930E94190D0FB6DF
:10143000F894DEBF0FBECDBF2B960FB6F894DEBF7B
:101440000FBECDBFDF91CF911F910F91FF90EF9015
:1014500008956AE281E40E94A40869E28DEB0E948B
:10146000A40868E281E00E94A40808951F93CF9326
:10147000DF93CDB7DEB72B970FB6F894DEBF0FBE64
:10148000CDBF182F682F8AE60E940B05FE0131960A
:101490009BE0DF011D929A95E9F7183729F424E0C3
:1014A00030E03A83298306C0193721F425E030E083
:1014B0003A83298391E09B838C83CE0101960E941D
:1014C0000E092B960FB6F894DEBF0FBECDBFDF918D
:1014D000CF911F910895CF93DF93CDB7DEB72B97B0
:1014E0000FB6F894DEBF0FBECDBF0E946706892BF2
:1014F00069F0CE0101962BE0FC0111922A95E9F7E3
:1015000021E030E03A8329830E940E092B960FB622
:10151000F894DEBF0FBECDBFDF91CF910895AA1B17
:10152000BB1B51E107C0AA1FBB1FA617B70710F0CE
:10153000A61BB70B881F991F5A95A9F78095909500
:10154000BC01CD010895A29FB001B39FC001A39F2C
:10155000700D811D1124911DB29F700D811D1124EC
:10156000911D08955058BB27AA270E94CA0A0C94BF
:10157000A20B0E94940B38F00E949B0B20F039F4D0
:101580009F3F19F426F40C94910B0EF4E095E7FBC1
:101590000C948B0BE92F0E94B30B58F3BA17620718
:1015A00073078407950720F079F4A6F50C94D50B02
:1015B0000EF4E0950B2EBA2FA02D0B01B90190016E
:1015C0000C01CA01A0011124FF27591B99F0593FB2
:1015D00050F4503E68F11A16F040A22F232F342FFA
:1015E0004427585FF3CF469537952795A795F04048
:1015F0005395C9F77EF41F16BA0B620B730B840B5D
:10160000BAF09150A1F0FF0FBB1F661F771F881F14
:10161000C2F70EC0BA0F621F731F841F48F487956C
:1016200077956795B795F7959E3F08F0B0CF93955E
:10163000880F08F09927EE0F9795879508950E94D7
:10164000BB0B88F09F5798F0B92F9927B751B0F08E
:10165000E1F0660F771F881F991F1AF0BA95C9F736
:1016600014C0B13091F00E94D50BB1E008950C94F4
:10167000D50B672F782F8827B85F39F0B93FCCF3A7
:10168000869577956795B395D9F73EF490958095B3
:10169000709561957F4F8F4F9F4F0895E89409C0D3
:1016A00097FB3EF490958095709561957F4F8F4F95
:1016B0009F4F9923A9F0F92F96E9BB279395F695AB
:1016C000879577956795B795F111F8CFFAF4BB0F29
:1016D00011F460FF1BC06F5F7F4F8F4F9F4F16C08D
:1016E000882311F096E911C0772321F09EE8872F17
:1016F000762F05C0662371F096E8862F70E060E0D3
:101700002AF09A95660F771F881FDAF7880F96954B
:10171000879597F9089597F99F6780E870E060E0F2
:1017200008959FEF80EC089500240A94161617067A
:1017300018060906089500240A94121613061406C2
:1017400005060895092E0394000C11F4882352F025
:10175000BB0F40F4BF2B11F460FF04C06F5F7F4FDD
:101760008F4F9F4F089557FD9058440F551F59F0C4
:101770005F3F71F04795880F97FB991F61F09F3F7E
:1017800079F087950895121613061406551FF2CFA7
:101790004695F1DF08C0161617061806991FF1CFF7
:1017A00086957105610508940895E894BB2766271E
:1017B0007727CB0197F908950E944E0C08F48FEF1C
:1017C00008950E94F40B0C94A20B0E94940B38F025
:1017D0000E949B0B20F0952311F00C948B0B0C9422
:1017E000910B11240C94D60B0E94B30B70F3959FB0
:1017F000C1F3950F50E0551F629FF001729FBB2708
:10180000F00DB11D639FAA27F00DB11DAA1F649FA3
:101810006627B00DA11D661F829F2227B00DA11D56
:10182000621F739FB00DA11D621F839FA00D611DDC
:10183000221F749F3327A00D611D231F849F600DFD
:10184000211D822F762F6A2F11249F5750409AF026
:10185000F1F088234AF0EE0FFF1FBB1F661F771FB2
:10186000881F91505040A9F79E3F510580F00C947D
:101870008B0B0C94D60B5F3FE4F3983ED4F3869524
:1018800077956795B795F795E7959F5FC1F7FE2B1D
:10189000880F911D9695879597F90895990F0008DF
:1018A000550FAA0BE0E8FEEF16161706E807F90732
:1018B000C0F012161306E407F50798F0621B730BCD
:1018C000840B950B39F40A2661F0232B242B252B4E
:1018D00021F408950A2609F4A140A6958FEF811DF1
:1018E000811D08958F929F92AF92BF92CF92DF9207
:1018F000EF92FF92CF93DF93EC01688179818A8127
:101900009B81611571058105910521F464E279EDF2
:101910008BE597E02DE133EF41E050E00E94341178
:1019200049015A019B01AC01A7EAB1E40E9453119D
:101930006B017C01ACEEB4EFA50194010E94611132
:10194000DC01CB018C0D9D1DAE1DBF1DB7FF03C07B
:101950000197A109B04888839983AA83BB839F77A5
:10196000DF91CF91FF90EF90DF90CF90BF90AF903D
:101970009F908F9008950E94720C08958EE091E0E0
:101980000E94720C0895A0E0B0E080930E01909345
:101990000F01A0931001B093110108950F931F93AD
:1019A000CF93DF93009731F46115710519F480E04E
:1019B00090E03AC08B01EC016EE070E081E090E0D5
:1019C0000E94400FFC01892B91F380E8838301156D
:1019D000110571F01387028781E8838380913603B4
:1019E00090913703892B21F4F0933703E09336036A
:1019F0002097C9F0D187C0878381826083838091DB
:101A0000380390913903892B71F4F0933903E093F3
:101A1000380380913A0390913B03892B21F4F09392
:101A20003B03E0933A03CF01DF91CF911F910F91D8
:101A30000895A0E0B0E0EFE1FDE00C947611AE0176
:101A40004B5F5F4FFA0161917191AF018091380353
:101A5000909139030E945F0DE2E00C9492110F9374
:101A60001F93CF93DF93E0913803F09139032381E3
:101A700021FF1BC08C01D0E0C0E0F80181918F01F3
:101A80006091380370913903DB011896ED91FC9158
:101A90001997882331F00995892B79F3DFEFCFEF80
:101AA000ECCF8AE00995892B19F08FEF9FEF02C0E8
:101AB0008D2F9C2FDF91CF911F910F910895ABE057
:101AC000B0E0E5E6FDE00C9466116C017B018A0153
:101AD000FC0117821682838181FFCCC1CE01019661
:101AE0003C01F6019381F70193FD859193FF81916C
:101AF0007F01882309F4BAC1853239F493FD8591B9
:101B000093FF81917F01853229F4B60190E00E9414
:101B10009A10E7CF912C212C312CFFE1F315D8F04E
:101B20008B3279F038F4803279F08332A1F4232DAE
:101B300020611DC08D3261F0803369F4232D216056
:101B400016C0832D8260382EE32DE4603E2E2AC01D
:101B5000F32DF8601DC037FC2DC020ED280F2A3072
:101B600040F08E32B9F436FC81C1232D2064322E30
:101B700019C036FE06C08AE0989E200D1124922ED0
:101B800011C0EAE02E9E200D1124222EF32DF062CA
:101B90003F2E08C08C3621F4832D8068382E02C079
:101BA000883641F4F70193FD859193FF81917F0180
:101BB0008111B3CF982F9F7D9554933028F40C5FFB
:101BC0001F4F9FE399830DC0833631F0833771F047
:101BD000833509F059C021C0F801808189830E5FE7
:101BE0001F4F88248394912C530113C02801F2E0E5
:101BF0004F0E511CF801A080B18036FE03C0692D44
:101C000070E002C06FEF7FEFC5010E948F104C01A2
:101C10008201F32DFF773F2E16C0280122E0420EED
:101C2000511CF801A080B18036FE03C0692D70E020
:101C300002C06FEF7FEFC5010E947D104C01F32DB4
:101C4000F0683F2E820133FC1BC0822D90E0881685
:101C50009906B0F4B60180E290E00E949A102A94AE
:101C6000F4CFF50137FC859137FE81915F01B60114
:101C700090E00E949A1021102A9421E0821A910883
:101C80008114910471F7E8C0843611F0893641F56A
:101C9000F80137FE07C060817181828193810C5FFA
:101CA0001F4F08C060817181072E000C880B990BB3
:101CB0000E5F1F4FF32DFF763F2E97FF09C09095C3
:101CC0008095709561957F4F8F4F9F4FF0683F2EA5
:101CD0002AE030E0A3010E94D610882E861845C065
:101CE000853731F4232D2F7EB22E2AE030E025C037
:101CF000932D997FB92E8F36C1F018F4883579F07D
:101D0000B5C0803719F0883721F0B0C0E92FE06105
:101D1000BE2EB4FE0DC0FB2DF460BF2E09C034FEF4
:101D20000AC0292F2660B22E06C028E030E005C088
:101D300020E130E002C020E132E0F801B7FE07C048
:101D400060817181828193810C5F1F4F06C0608129
:101D5000718180E090E00E5F1F4FA3010E94D610BA
:101D6000882E8618FB2DFF773F2E36FE0DC0232DC3
:101D70002E7FA22E891458F434FE0BC032FC09C009
:101D8000832D8E7EA82E05C0B82CA32C03C0B82CA2
:101D900001C0B92CA4FE0FC0FE01E80DF11D808129
:101DA000803321F49A2D997EA92E09C0A2FE06C087
:101DB000B394B39404C08A2D867809F0B394A3FC3D
:101DC00011C0A0FE06C0B21488F4280C922C9B18F7
:101DD0000EC0B21460F4B60180E290E00E949A1046
:101DE000B394F7CFB21418F42B1802C0982C212CFE
:101DF000A4FE10C0B60180E390E00E949A10A2FEFB
:101E000017C0A1FC03C088E790E002C088E590E01D
:101E1000B6010CC08A2D867859F0A1FE02C08BE273
:101E200001C080E2A7FC8DE2B60190E00E949A100A
:101E3000891438F4B60180E390E00E949A109A94D5
:101E4000F7CF8A94F301E80DF11D8081B60190E08F
:101E50000E949A108110F5CF222009F442CEB601DB
:101E600080E290E00E949A102A94F6CFF6018681D3
:101E7000978102C08FEF9FEF2B96E2E10C948211C5
:101E80000F931F93CF93DF93869F8001879F100D41
:101E9000969F100D1124C8010E945C0FEC01009761
:101EA00029F0A80160E070E00E948810CE01DF9167
:101EB000CF911F910F9108950F931F93CF93DF93AD
:101EC0008230910510F482E090E0E0913E03F091C1
:101ED0003F0320E030E0A0E0B0E0309719F140810E
:101EE00051810281138148175907C8F0841795075B
:101EF00069F4109731F012960C93129713961C9375
:101F000027C000933E0310933F0322C021153105E3
:101F100019F04217530718F49A01BD01EF01DF01D0
:101F2000F801DBCF21153105F9F0281B390B2430DE
:101F3000310580F48A819B816115710521F0FB01D7
:101F40009383828304C090933F0380933E03FE01FA
:101F5000329644C0FE01E20FF31F81939193225009
:101F60003109398328833AC020913C0330913D03E5
:101F7000232B41F4209114013091150130933D033E
:101F800020933C032091120130911301211531055A
:101F900041F42DB73EB74091160150911701241B13
:101FA000350BE0913C03F0913D03E217F307A0F4F9
:101FB0002E1B3F0B2817390778F0AC014E5F5F4F9F
:101FC0002417350748F04E0F5F1F50933D03409391
:101FD0003C038193919302C0E0E0F0E0CF01DF91F8
:101FE000CF911F910F910895CF93DF93009709F43C
:101FF00081C0FC01329713821282A0913E03B091FE
:102000003F03109781F420813181820F931F20912B
:102010003C0330913D032817390751F5F0933D03F8
:10202000E0933C0367C0ED0120E030E0CE17DF070E
:1020300040F44A815B819E0141155105F1F0EA01AE
:10204000F5CFD383C28340815181840F951FC81778
:10205000D90759F488819981840F951F029691833D
:1020600080838A819B81938382832115310529F4A2
:10207000F0933F03E0933E033DC0E901FB83EA8315
:1020800049915991C40FD51FEC17FD0761F4808168
:102090009181840F951F0296E9019983888382813B
:1020A00093819B838A83E0E0F0E012968D919C916E
:1020B0001397009719F0FD01DC01F7CF8D919C91EA
:1020C00011979D012E5F3F4F820F931F20913C037C
:1020D00030913D032817390769F4309729F410929D
:1020E0003F0310923E0302C013821282B0933D035D
:1020F000A0933C03DF91CF910895FC0105906150BE
:1021000070400110D8F7809590958E0F9F1F08950D
:10211000DC0101C06D9341505040E0F70895FC018F
:102120006150704001900110D8F7809590958E0F06
:102130009F1F08950F931F93CF93DF93FB0123817C
:1021400021FD03C08FEF9FEF2CC022FF16C04681F8
:102150005781248135814217530744F4A081B1810E
:102160009D012F5F3F4F318320838C9326813781E0
:102170002F5F3F4F3783268314C08B01EC01FB0197
:102180000084F185E02D0995892BE1F6D80116969A
:102190008D919C911797019617969C938E93169705
:1021A000CE01DF91CF911F910F910895FA01AA27D7
:1021B000283051F1203181F1E8946F936E7F6E5F8A
:1021C0007F4F8F4F9F4FAF4FB1E03ED0B4E03CD038
:1021D000670F781F891F9A1FA11D680F791F8A1F1B
:1021E000911DA11D6A0F711D811D911DA11D20D082
:1021F00009F468943F912AE0269F11243019305D3C
:102200003193DEF6CF010895462F4770405D41932C
:10221000B3E00FD0C9F7F6CF462F4F70405D4A3379
:1022200018F0495D31FD4052419302D0A9F7EACF41
:10223000B4E0A6959795879577956795BA95C9F770
:1022400000976105710508959B01AC010A2E069463
:102250005795479537952795BA95C9F7620F731F1C
:10226000841F951FA01D0895052E97FB1EF4009452
:102270000E944B1157FD07D00E949D1107FC03D00F
:102280004EF40C944B1150954095309521953F4F4D
:102290004F4F5F4F089590958095709561957F4F52
:1022A0008F4F9F4F08950E94A30AA59F900DB49F42
:1022B000900DA49F800D911D11240895B7FF0C94DB
:1022C00053110E945311821B930B08952F923F923A
:1022D0004F925F926F927F928F929F92AF92BF9236
:1022E000CF92DF92EF92FF920F931F93CF93DF93E2
:1022F000CDB7DEB7CA1BDB0B0FB6F894DEBF0FBE3F
:10230000CDBF09942A88398848885F846E847D848B
:102310008C849B84AA84B984C884DF80EE80FD808D
:102320000C811B81AA81B981CE0FD11D0FB6F89403
:10233000DEBF0FBECDBFED010895A1E21A2EAA1B8C
:10234000BB1BFD010DC0AA1FBB1FEE1FFF1FA21765
:10235000B307E407F50720F0A21BB30BE40BF50B62
:10236000661F771F881F991F1A9469F760957095EB
:10237000809590959B01AC01BD01CF010895F89423
:02238000FFCF8D
:1023820001000101000000000000000B010101003A
:1023920000000000400320005374617274696E678C
:1023A200205352414D20746573742E2E2E0D00570A
:1023B20072697465207068617365206572726F72EC
:1023C2003A206578745F72616D5B2534645D203DEF
:1023D2002025303258202873686F756C642062653E
:1023E2002025303258290D0A0052657472696576CB
:1023F200616C207068617365206572726F723A2039
:102402006578745F72616D5B2534645D203D2025C3
:10241200303258202873686F756C642062652025FD
:10242200303258290D0A005352414D20746573749D
:1024320020636F6D706C65746564207769746820C1
:102442000D0A253464206572726F727320696E20E2
:10245200777269746520706861736520616E6420AB
:102462000D0A253464206572726F727320696E20C2
:1024720072657472696576616C2070686173650D4E
:102482000A0D0A004144432D76657264693A20259B
:102492003032580D0A00506C61792047616D652019
:1024A200580053657474696E6773005665727920BB
:1024B200636F6F6C2067616D65006973206E6F7763
:1024C20000706C6179696E67002047414D45204F6D
:1024D2005645520052657475726E207769746800B1
:1024E2004C45465420425554544F4E00506C61792D
:1024F2002047616D650053657474696E6773205877
:10250200006E6F2073657474696E6773006E657216
:102512006400636C69636B203220676F20626163C1
:102522006B004D43503235313520657220696B6B3B
:10253200652069206B6F6E666967757261736A6F79
:102542006E736D6F64757320657474657220726545
:102552007365742E2043414E535441543A202578DA
:10256200200D0A00696E76616C696420726571756E
:1025720065737420746F2073656E6420696E707564
:10258200740D004D656C64696E673A0D0049643ADA
:10259200202564200D0A004C656E6764653A20258B
:1025A20064200D0A004D656C64696E673A202573DC
:0625B200200D0A0D0A00D5
:00000001FF
